S00E00004761726167652E73726563CF
S11300000C942A000C9447000C9447000C9447006D
S11300100C9447000C9447000C9447000C94470040
S11300200C9447000C9447000C9447000C94470030
S11300300C9447000C9447000C9447000C94470020
S11300400C9447000C9447000C9447000C94470010
S11300500C94470011241FBECFE5D8E0DEBFCDBF0E
S113006010E0A0E6B0E0E0E7FCE002C005900D92ED
S1130070A43CB107D9F710E0A4ECB0E001C01D9294
S1130080A43CB107E1F70E94F5020C9436060C94E7
S11300900000823451F1833420F4813409F07BC0B0
S11300A007C0833409F43EC0843409F074C057C0D7
S11300B0413069F42AB381E090E0AC0102C0440FFE
S11300C0551F6A95E2F7BA01622B6ABB08952AB3F9
S11300D081E090E0AC0102C0440F551F6A95E2F73D
S11300E0BA01609562236ABB0895413069F427B36D
S11300F081E090E0AC0102C0440F551F6A95E2F71D
S1130100BA01622B67BB089527B381E090E0AC018C
S113011002C0440F551F6A95E2F7BA016095622345
S113012067BB0895413069F424B381E090E0AC01E9
S113013002C0440F551F6A95E2F7BA01622B64BBF3
S1130140089524B381E090E0AC0102C0440F551F30
S11301506A95E2F7BA016095622364BB0895413061
S113016069F421B381E090E0AC0102C0440F551F53
S11301706A95E2F7BA01622B61BB089521B381E06D
S113018090E0AC0102C0440F551F6A95E2F7BA0132
S11301906095622361BB0895823451F1833420F465
S11301A0813409F07BC007C0833409F43EC0843431
S11301B009F074C057C0413069F42BB381E090E07A
S11301C0AC0102C0440F551F6A95E2F7BA01622BD5
S11301D06BBB08952BB381E090E0AC0102C0440FE7
S11301E0551F6A95E2F7BA01609562236BBB0895C7
S11301F0413069F428B381E090E0AC0102C0440FBF
S1130200551F6A95E2F7BA01622B68BB089528B3BB
S113021081E090E0AC0102C0440F551F6A95E2F7FB
S1130220BA016095622368BB0895413069F425B32F
S113023081E090E0AC0102C0440F551F6A95E2F7DB
S1130240BA01622B65BB089525B381E090E0AC014F
S113025002C0440F551F6A95E2F7BA016095622304
S113026065BB0895413069F422B381E090E0AC01AC
S113027002C0440F551F6A95E2F7BA01622B62BBB4
S1130280089522B381E090E0AC0102C0440F551FF1
S11302906A95E2F7BA016095622362BB08958234DD
S11302A0F1F0833420F4813409F04FC006C0833464
S11302B041F1843409F049C036C029B381E090E0AB
S11302C0062E02C0880F991F0A94E2F730E08223B9
S11302D0932302C0959587956A95E2F7089526B30E
S11302E081E090E0062E02C0880F991F0A94E2F77D
S11302F030E08223932302C0959587956A95E2F7AF
S1130300089523B381E090E0062E02C0880F991F60
S11303100A94E2F730E08223932302C095958795EF
S11303206A95E2F7089520B381E090E0062E02C0BA
S1130330880F991F0A94E2F730E08223932302C0C6
S1130340959587956A95E2F7089580E0089582343B
S1130350B9F0833418F48134C9F505C08334E9F065
S11303608434A1F527C02BB381E090E0AC0102C036
S1130370440F551F6A95E2F7BA0162276BBB0895D3
S113038028B381E090E0AC0102C0440F551F6A9588
S1130390E2F7BA01622768BB089525B381E090E0D3
S11303A0AC0102C0440F551F6A95E2F7BA016227F7
S11303B065BB089522B381E090E0AC0102C0440F14
S11303C0551F6A95E2F7BA01622762BB0895823429
S11303D061F0833418F4813469F405C0833439F04E
S11303E0843441F406C06ABB089567BB089564BBB6
S11303F0089561BB0895823461F0833418F4813424
S113040069F405C0833439F0843441F406C06BBB0D
S1130410089568BB089565BB089562BB089582344E
S113042061F0833418F4813471F405C0833439F0F5
S1130430843449F406C089B3089586B3089583B318
S1130440089580B3089580E00895823451F183348F
S113045020F4813409F07BC007C0833409F43EC022
S1130460843409F074C057C0413069F42BB381E07F
S113047090E0AC0102C0440F551F6A95E2F7BA013F
S1130480622B6BBB08952BB381E090E0AC0102C0FA
S1130490440F551F6A95E2F7BA01609562236BBB5E
S11304A00895413069F428B381E090E0AC0102C0C2
S11304B0440F551F6A95E2F7BA01622B68BB089591
S11304C028B381E090E0AC0102C0440F551F6A9547
S11304D0E2F7BA016095622368BB0895413069F47C
S11304E025B381E090E0AC0102C0440F551F6A952A
S11304F0E2F7BA01622B65BB089525B381E090E071
S1130500AC0102C0440F551F6A95E2F7BA01609529
S1130510622365BB0895413069F422B381E090E021
S1130520AC0102C0440F551F6A95E2F7BA01622B71
S113053062BB089522B381E090E0AC0102C0440F95
S1130540551F6A95E2F7BA016095622362BB08956C
S11305506F70823481F0833418F48134F1F405C06F
S1130560833479F08434C9F412C08BB3807F8BBB9D
S11305708BB3862B8BBB88B3807F88BB88B3862BD9
S113058088BB85B3807F85BB85B3862B85BB82B34F
S1130590807F82BB82B3682B62BB08956295607FC3
S11305A0823481F0833418F48134F1F405C0833447
S11305B079F08434C9F412C08BB38F708BBB8BB3C6
S11305C0862B8BBB88B38F7088BB88B3862B88BB84
S11305D085B38F7085BB85B3862B85BB82B38F7043
S11305E082BB82B3682B62BB08950E942E0480E60E
S11305F090E00E94A70482E061E00E94C00481E7C9
S113060090E00E94A70484E460E040E00E94490076
S113061084E461E040E00E94490084E462E040E058
S11306200E94490084E463E040E00E944900FF2402
S1130630D0E000E010E0C0E00F2EF2E84F2EF0E032
S11306405F2EF02D0F2EFAE8CF2EF0E0DF2EF02DE6
S11306500F2EF5E9AF2EF0E0BF2EF02D0F2EF1E7AF
S11306608F2EF0E09F2EF02D0F2EFBE92F2EF0E0C1
S11306703F2EF02D0F2EFBEB6F2EF0E07F2EF02D92
S113068001C0D0E084E460E00E944F018130F1F5C4
S1130690CC23E1F584E08F1508F43FC0CF2DCF5F64
S11306A06FEE7FEF8FE79FE30E9422050E94B6045E
S11306B0C2010E94A704A3EDB0E31197F1F700C0B3
S11306C000000E94B604C6010E94A7048F2D8F5C0F
S11306D00E949504C5010E94A70482E061E00E9483
S11306E0C004C4010E94A704C53099F40E94B60452
S11306F0C1010E94A70482E061E00E94C0048CEA68
S113070090E00E94A704FC2EC1E007C0882321F0DA
S113071004C0FC2EC1E001C0C0E084E461E00E949A
S11307204F01813051F4112341F468EF7FEF8FEBD7
S11307309FE30E94220511E003C0882309F410E01E
S113074084E462E00E944F01813001F50023F1F45A
S1130750FF20F9F068E57FEF8FE79FE30E94010532
S1130760FA940E94B604C6010E94A7048F2D805DEE
S11307700E949504C5010E94A70482E061E00E94E2
S1130780C004C4010E94A70401E003C0882309F443
S113079000E084E463E00E944F01813091F5DD23A1
S11307A009F070CF6CEA7FEF8FEB9FE30E940105A5
S11307B00E94B604C3010E94A7048BE792E9019743
S11307C0F1F700C000000E94B604C6010E94A7040D
S11307D08F2D805D0E949504C5010E94A70482E0CC
S11307E061E00E94C004C4010E94A7048FE691E165
S11307F0A1E081509040A040E1F700C00000D1E0AA
S113080041CF882309F43DCF3DCF82E460E041E04D
S11308100E94CC0083EF91E00197F1F700C0000043
S113082082E460E040E00E94CC0083EF91E0019715
S1130830F1F700C000000895682F81E40E94FB01D5
S113084082E461E040E00E94CC000E94050489EF4C
S113085090E00197F1F700C0000008958FE493EC55
S11308600197F1F700C0000081E460E041E00E94DC
S1130870490081E461E041E00E94490081E462E0D2
S113088041E00E94490081E463E041E00E944900A4
S113089081E464E041E00E94490081E465E041E0D4
S11308A00E94490081E466E041E00E94490081E43D
S11308B067E041E00E94490082E460E041E00E9478
S11308C0490082E462E041E00E94490082E461E080
S11308D041E00E94490082E462E040E00E94CC00D2
S11308E088E30E941C0489EF90E00197F1F700C0AF
S11308F000008EE00E941C0489EF90E00197F1F75C
S113090000C0000081E00E941C0483EC99E0019780
S1130910F1F700C0000086E00E941C0489EF90E01B
S11309200197F1F700C000000895682F81E40E9448
S1130930FB0182E461E041E00E94CC000E940504D6
S113094089EF90E00197F1F700C000000895CF937C
S1130950DF93EC018881882331F021960E9495046D
S113096089918823D9F7DF91CF91089581E00E947E
S11309701C0483EC99E00197F1F700C0000008958E
S1130980282F2150223070F4613170F4662371F005
S1130990813019F4962F91580AC0823041F4962F71
S11309A0915405C090E803C090E801C090E8892FF5
S11309B00E941C0489EF90E00197F1F700C0000049
S11309C0089583B7886083BF80E58CBF83B7816057
S11309D083BF83B7846083BF789489B7826089BFFB
S11309E00895BB9A83B7886083BF80E48CBF83B7C4
S11309F0816083BF83B7846083BF83B7806183BF13
S1130A0008958D9A2FB522602FBD2EB528602EBD76
S1130A102EB520612EBD20E030E04AE754E40E9468
S1130A20AB050E945605DC01CB019BBD8ABD8FE15D
S1130A309EE497BD86BD8EB581608EBD8FB58068FE
S1130A408FBD08958C9A2FB522602FBD2EB52860D6
S1130A502EBD2EB520612EBD20E030E04AE754E4DF
S1130A600E94AB050E945605DC01CB0199BD88BDEF
S1130A708FE19EE497BD86BD8EB581608EBD8FB536
S1130A8080628FBD0895BB9A83B7806483BF80E47E
S1130A908CBF83B7816083BF83B7846083BF83B710
S1130AA0806183BF83B7806283BF089533D088F0A9
S1130AB09F5790F0B92F9927B751A0F0D1F0660F46
S1130AC0771F881F991F1AF0BA95C9F712C0B13061
S1130AD081F03AD0B1E0089537C0672F782F882786
S1130AE0B85F39F0B93FCCF3869577956795B395A0
S1130AF0D9F73EF490958095709561957F4F8F4F0F
S1130B009F4F089557FD9058440F551F59F05F3F6C
S1130B1071F04795880F97FB991F61F09F3F79F01B
S1130B2087950895121613061406551FF2CF46959D
S1130B30F1DF08C0161617061806991FF1CF86951F
S1130B407105610508940895E894BB276627772703
S1130B50CB0197F908950BD078C069D028F06ED0F6
S1130B6018F0952309F05AC05FC01124EECFCADFF4
S1130B70A0F3959FD1F3950F50E0551F629FF001AC
S1130B80729FBB27F00DB11D639FAA27F00DB11D05
S1130B90AA1F649F6627B00DA11D661F829F22278E
S1130BA0B00DA11D621F739FB00DA11D621F839F15
S1130BB0A00D611D221F749F3327A00D611D231FEB
S1130BC0849F600D211D822F762F6A2F11249F5739
S1130BD050408AF0E1F088234AF0EE0FFF1FBB1F5C
S1130BE0661F771F881F91505040A9F79E3F5105FB
S1130BF070F014C0AACF5F3FECF3983EDCF3869507
S1130C0077956795B795F795E7959F5FC1F7FE2BA5
S1130C10880F911D9695879597F9089597F99F6781
S1130C2080E870E060E008959FEF80EC0895002470
S1130C300A941616170618060906089500240A943D
S1130C4012161306140605060895092E0394000CC3
S1130C5011F4882352F0BB0F40F4BF2B11F460FF52
S1130C6004C06F5F7F4F8F4F9F4F0895F894FFCF5D
S1130C705468657265206172652030204361727327
S1130C8000476172616765206861732073706163F6
S1130C90650057656C636F6D650054686572652007
S1130CA06172652000206361727300746865726507
S1130CB0206172652035206361727300476172613F
S1130CC067652069732066756C6C00476F6F6420DC
S1070CD042796500FC
S9030000FC
